:100000000C9439000C9454000C9455000C9400008E
:100010000C9400000C9400000C9400000C94000060
:100020000C9400000C9400000C9400000C94000050
:100030000C9400000C9400000C9400000C94000040
:100040000C9400000C9400000C9400000C94000030
:100050000C94000000000000000000000000000000
:100060000000000000000000000000000000000090
:100070000000F894EE27ECBBF1E0FBBFEBBFE5BF5F
:100080008DE0A2E0BB27ED938A95E9F780E094E04C
:10009000A0E6ED930197E9F7EFE5EDBFE4E0EEBFF1
:1000A000C0E6D1E00C94560018951895EFE0EABB35
:1000B000E0E0EBBBE7BBE8BBE4BBE5BBE1BBE2BB1D
:1000C000E3BFE2BFECBFEFBDEEBDEDBDECBDE7BDF4
:1000D000E6BDEBBDEABDE9BDE8BDE2BDE5BDE4BD01
:1000E000E3BDE9BFEBB7E06CEBBFEFE0E5BFE0E0FD
:1000F000E4BFE0ECEABFE0E0EAB9E0E8E8B9E0E05C
:10010000E0BFE6B9EDB9E6BF78946E978EE1A0E066
:10011000B0E0E4E5F0E00E949100D99A6E96F5CF48
:10012000FFCFAC0FBD1F05900D928A95E1F70895A2
:00000001FF
