:100000000C942F000C945C000C945D000C94000088
:100010000C9400000C9400000C9400000C94000060
:100020000C9400000C9400000C9400000C94000050
:100030000C9400000C9400000C9400000C94000040
:100040000C9400000C9400000C9400000C94000030
:100050000C94000000000200060054000000F89418
:10006000EE27ECBBF1E0FBBFEBBFE5BF8DE0A2E00C
:10007000BB27ED938A95E9F780E094E0A0E6ED9345
:100080000197E9F7E6E5F0E085919591009761F039
:10009000A591B59105901590BF01F00105900D92C5
:1000A0000197E1F7FB01F0CFEFE5EDBFE4E0EEBF34
:1000B000C0E6D1E00C945E0018951895EFE0EABB1D
:1000C000E0E0EBBBE7BBE8BBE4BBE5BBE1BBE2BB0D
:1000D000E3BFE2BFECBFEFBDEEBDEDBDECBDE7BDE4
:1000E000E6BDEBBDEABDE9BDE8BDE2BDE5BDE4BDF1
:1000F000E3BDE9BFEBB7E06CEBBFEFE0E5BFE0E0ED
:10010000E4BFE0ECEABFE0E0EAB9E0E8E8B9E0E04B
:10011000E0BFE6B9EDB9E6BF7894E1E0F0E0E615BE
:10012000F70511F4DB9A01C0DB98002406140704DC
:1001300011F4B39901C02EC02197E6B3E883E1E042
:10014000F0E03F01E881E770E883F0E0E130A0E013
:10015000FA0721F4E1E0F0E02F0112C0E230A0E064
:10016000FA0721F4E2E0F0E02F010AC0E430A0E059
:10017000FA0721F4E3E0F0E02F0102C04424552403
:10018000E1E0F0E0E415F50511F4D89A01C0D89843
:10019000219604C0B39902C066247724BECFFFCF56
:00000001FF
